:100000000C942A000C9447000C9447000C94470071
:100010000C9447000C9447000C9447000C94470044
:100020000C9447000C9447000C9447000C94470034
:100030000C9447000C9447000C9447000C94470024
:100040000C9447000C9447000C9447000C94470014
:100050000C94470011241FBECFE5D8E0DEBFCDBF12
:1000600010E0A0E6B0E0E0E0F1E202C005900D9201
:10007000A038B107D9F710E0A0E8B0E001C01D92A8
:10008000A238B107E1F70E94D50E0C947E100C94B3
:100090000000EF92FF920F931F937B018C0120E0F1
:1000A00030E040E05FE40E94490388238CF0C801FF
:1000B000B70120E030E040E05FE40E94C1010E940F
:1000C000A9039B01AC01205030404040504806C07D
:1000D000C801B7010E94A9039B01AC01B901CA0183
:1000E0001F910F91FF90EF900895A0E0B0E0EBE733
:1000F000F0E00C944710DC012B01FA019C91923046
:1001000008F439C1EB018881823008F433C194309E
:1001100069F4843009F02FC111969C91119789815F
:10012000981709F428C1A8E6B0E025C1843009F485
:1001300021C18230A9F4923009F01DC19A01AD01AC
:1001400088E0EA010990AE01E90109929E0181501F
:10015000C1F7E201898111969C918923818308C1AD
:10016000923009F407C112962D903C901397EB0141
:100170008A819B811496AD90BD90CD90DC901797AD
:10018000EC80FD800E811F819101281B390BB90184
:1001900037FF04C066277727621B730B6032710537
:1001A0000CF061C0121613066CF537014801062EDB
:1001B00004C096948794779467940A94D2F721E0C8
:1001C00030E040E050E004C0220F331F441F551FB1
:1001D0006A95D2F721503040404050402E213F21B7
:1001E00040235123211531054105510521F021E01E
:1001F00030E040E050E079018A01E628F72808293C
:1002000019293CC0232BD1F1260E371E350146019A
:10021000062E04C096948794779467940A94D2F734
:1002200021E030E040E050E004C0220F331F441FC3
:10023000551F6A95D2F721503040404050402A2146
:100240003B214C215D21211531054105510521F04E
:1002500021E030E040E050E059016A01A628B728CB
:10026000C828D9280BC0821593052CF01C01AA249C
:10027000BB24650103C0EE24FF24870111969C91E5
:10028000D20111968C91981709F445C0992339F041
:10029000A80197012A193B094C095D0906C0A6016E
:1002A00095012E193F09400B510B57FD08C01182D3
:1002B0003382228224833583468357831DC081E0A5
:1002C00081833382228288279927DC01821B930B4A
:1002D000A40BB50B84839583A683B7830DC0220F2F
:1002E000331F441F551F24833583468357838281E0
:1002F000938101979383828324813581468157813D
:10030000DA01C9010197A109B1098F5F9F4FAF4F72
:10031000BF4328F30BC0918333822282EA0CFB1C7B
:100320000C1D1D1DE482F5820683178383E0808304
:10033000248135814681578157FF1AC0C901AA27F8
:1003400097FDA095BA2F81709070A070B0705695EF
:10035000479537952795822B932BA42BB52B848318
:100360009583A683B7838281938101969383828349
:10037000DF0101C0D201CD01CDB7DEB7E2E10C94BF
:100380006310A0E2B0E0E7ECF1E00C945310698355
:100390007A838B839C832D833E834F835887E9E048
:1003A000EE2EF12CEC0EFD1ECE010196B7010E943F
:1003B000D2048E010F5E1F4FCE010596B8010E9438
:1003C000D2048A8991E089278A8BC701B801AE01DE
:1003D000475E5F4F0E9475000E94FD03A096E6E015
:1003E0000C946F10A0E2B0E0E8EFF1E00C94531031
:1003F00069837A838B839C832D833E834F835887C5
:10040000F9E0EF2EF12CEC0EFD1ECE010196B701A6
:100410000E94D2048E010F5E1F4FCE010596B801D7
:100420000E94D204C701B801AE01475E5F4F0E942F
:1004300075000E94FD03A096E6E00C946F10A0E208
:10044000B0E0E5E2F2E00C94471069837A838B8395
:100450009C832D833E834F835887CE010196BE0136
:10046000675F7F4F0E94D204CE010596BE016F5E8A
:100470007F4F0E94D2049985923088F0898982301A
:10048000C8F0943019F4823051F404C0843029F457
:10049000923081F488E690E0C6C0923049F420E0C2
:1004A0009A858A89981321E02A87CE010996BBC0D4
:1004B000823049F420E09A858A89981321E02A8BBA
:1004C000CE014196B0C02D843E844F8458886D88FB
:1004D0007E888F88988CEE24FF248701AA24BB2471
:1004E000650140E050E060E070E0E0E0F0E0C10174
:1004F00081709070892BE9F0E60CF71C081D191D1E
:100500009A01AB012A0D3B1D4C1D5D1D80E090E062
:10051000A0E0B0E0E614F7040805190520F481E036
:1005200090E0A0E0B0E0BA01A901480F591F6A1F8E
:100530007B1FAA0CBB1CCC1CDD1C97FE08C081E0F5
:1005400090E0A0E0B0E0A82AB92ACA2ADB2A3196B6
:10055000E032F10549F0660C771C881C991C569412
:10056000479437942794C3CFFA85EA892B893C892D
:100570008B859C85280F391F2E5F3F4F17C0CA01FE
:1005800081709070892B61F016950795F794E79428
:1005900080E090E0A0E0B0E8E82AF92A0A2B1B2BC3
:1005A00076956795579547952F5F3F4F77FDE7CF36
:1005B0000CC0440F551F661F771F17FD4160EE0CDE
:1005C000FF1C001F111F21503040403090E05907A0
:1005D00090E0690790E4790760F32B8F3C8FDB0193
:1005E000CA018F779070A070B07080349105A1051A
:1005F000B10561F447FD0AC0E114F10401051105DC
:1006000029F0405C5F4F6F4F7F4F40781A8EFE1786
:1006100011F081E08A8F4D8F5E8F6F8F78A383E01A
:10062000898FCE0149960E94FD03A096E2E10C94C9
:100630006310A8E1B0E0EFE1F3E00C94531069839C
:100640007A838B839C832D833E834F83588789E0F5
:10065000E82EF12CEC0EFD1ECE010196B7010E9492
:10066000D2048E010F5E1F4FCE010596B8010E9485
:10067000D2048985823040F08989823028F0C70110
:10068000B8010E944A0501C08FEF6896E6E00C941D
:100690006F10A8E1B0E0EFE4F3E00C94531069832D
:1006A0007A838B839C832D833E834F83588789E095
:1006B000E82EF12CEC0EFD1ECE010196B7010E9432
:1006C000D2048E010F5E1F4FCE010596B8010E9425
:1006D000D2048985823040F08989823028F0C701B0
:1006E000B8010E944A0501C08FEF6896E6E00C94BD
:1006F0006F10A8E1B0E0EFE7F3E00C9453106983CA
:100700007A838B839C832D833E834F83588789E034
:10071000E82EF12CEC0EFD1ECE010196B7010E94D1
:10072000D2048E010F5E1F4FCE010596B8010E94C4
:10073000D2048985823040F08989823028F0C7014F
:10074000B8010E944A0501C081E06896E6E00C9479
:100750006F10ACE0B0E0EFEAF3E00C94571069835F
:100760007A838B839C83CE010196BE016B5F7F4FA2
:100770000E94D2048D81823061F1823050F1843048
:1007800021F48E81882351F12EC02F81388537FDC9
:1007900020C06E812F3131051CF06623F9F023C093
:1007A0008EE190E0821B930B29853A854B855C8511
:1007B00004C056954795379527958A95D2F76623B5
:1007C000B1F050954095309521953F4F4F4F5F4F79
:1007D0000EC020E030E040E050E009C02FEF3FEFD6
:1007E0004FEF5FE704C020E030E040E050E8B9019F
:1007F000CA012C96E2E00C947310DF92EF92FF9204
:100800000F931F93FC01E480F58006811781D1804E
:100810008081823048F480E090E0A0E1B0E0E82AF6
:10082000F92A0A2B1B2BA5C0843009F49FC0823003
:1008300021F4EE24FF24870105C0E114F104010531
:10084000110519F4E0E0F0E096C0628173819FEF3A
:10085000623879070CF05BC022E83FEF261B370BAC
:100860002A3131052CF020E030E040E050E02AC091
:10087000B801A701022E04C0769567955795479554
:100880000A94D2F781E090E0A0E0B0E004C0880FC5
:10089000991FAA1FBB1F2A95D2F70197A109B10979
:1008A0008E219F21A023B1230097A105B10521F03E
:1008B00081E090E0A0E0B0E09A01AB01282B392B59
:1008C0004A2B5B2BDA01C9018F779070A070B07052
:1008D00080349105A105B10539F427FF09C0205CDA
:1008E0003F4F4F4F5F4F04C0215C3F4F4F4F5F4F13
:1008F000E0E0F0E02030A0E03A07A0E04A07A0E402
:100900005A0710F0E1E0F0E079018A0127C0603871
:10091000710564F5FB01E158FF4FD801C7018F77DE
:100920009070A070B07080349105A105B10539F4C4
:10093000E7FE0DC080E490E0A0E0B0E004C08FE3EB
:1009400090E0A0E0B0E0E80EF91E0A1F1B1F17FFA1
:1009500005C016950795F794E794319687E01695AC
:100960000795F794E7948A95D1F705C0EE24FF2404
:100970008701EFEFF0E06E2F679566276795902F60
:100980009F77D794DD24D7948E2F8695492F462BB9
:10099000582F5D29B701CA011F910F91FF90EF9069
:1009A000DF900895FC01DB01408151812281622F9B
:1009B0006F7770E0221F2227221F9381892F880FD3
:1009C000822B282F30E0991F9927991F11969C930D
:1009D000119721153105A9F54115510561057105DD
:1009E00011F482E037C082E89FEF13969C938E93B8
:1009F00012979A01AB0167E0220F331F441F551F66
:100A00006A95D1F783E08C930DC0220F331F441FEA
:100A1000551F12968D919C911397019713969C9355
:100A20008E931297203080E0380780E0480780E4FA
:100A3000580758F314962D933D934D935C93179755
:100A400008952F3F310579F4411551056105710570
:100A500019F484E08C93089564FF03C081E08C93C3
:100A600012C01C9210C02F57304013963C932E9307
:100A7000129783E08C9387E0440F551F661F771F02
:100A80008A95D1F7706414964D935D936D937C9322
:100A9000179708951F93DC01FB019C91923008F495
:100AA00047C08081823008F443C0943051F41196DD
:100AB0001C91843099F58181682F70E0611B710968
:100AC0003FC0843021F0923031F48230B9F181811D
:100AD000882389F12DC011961C9111978230F1F075
:100AE00081811817D9F412962D913C911397828128
:100AF00093818217930794F028173907BCF0149656
:100B00008D919D910D90BC91A02D248135814681C0
:100B10005781281739074A075B0718F4112341F05A
:100B20000AC082179307A407B50740F4112319F0F0
:100B300061E070E005C06FEF7FEF02C060E070E041
:100B4000CB011F910895DF93CF93CDB7DEB72F97D9
:100B50000FB6F894DEBF0FBECDBF8F8783E060E095
:100B600041E00E948E0A83E061E040E00E948E0A2C
:100B700081E06F850E94D20B83E062E041E00E9439
:100B80008E0A80E090E0A0E0B0E48B879C87AD8780
:100B9000BE876B857C858D859E8520E030E04AEFA1
:100BA00054E40E941F02DC01CB018F839887A98740
:100BB000BA876F81788589859A8520E030E040E8A2
:100BC0005FE30E94790388232CF481E090E09E8308
:100BD0008D833FC06F81788589859A8520E03FEFBE
:100BE0004FE757E40E94190318164CF56B857C8576
:100BF0008D859E8520E030E040E251E40E941F0296
:100C0000DC01CB01BC01CD010E944900DC01CB011C
:100C10009E838D830FC088EC90E09C838B838B81B7
:100C20009C810197F1F79C838B838D819E81019735
:100C30009E838D838D819E81009769F714C06F819B
:100C4000788589859A850E944900DC01CB019E83C5
:100C50008D838D819E819A83898389819A81019771
:100C6000F1F79A83898383E062E040E00E948E0A74
:100C70002F960FB6F894DEBF0FBECDBFCF91DF9198
:100C80000895DF93CF93CDB7DEB72F970FB6F894C3
:100C9000DEBF0FBECDBF8F8783E060E040E00E94E3
:100CA0008E0A83E061E040E00E948E0A81E06F8559
:100CB0000E94D20B83E062E041E00E948E0A80E055
:100CC00090E0A0E0B0E48B879C87AD87BE876B8502
:100CD0007C858D859E8520E030E04AEF54E40E94BB
:100CE0001F02DC01CB018F839887A987BA876F81A8
:100CF000788589859A8520E030E040E85FE30E94AE
:100D0000790388232CF481E090E09E838D833FC09B
:100D10006F81788589859A8520E03FEF4FE757E41A
:100D20000E94190318164CF56B857C858D859E8570
:100D300020E030E040E251E40E941F02DC01CB01E0
:100D4000BC01CD010E944900DC01CB019E838D8353
:100D50000FC088EC90E09C838B838B819C810197F2
:100D6000F1F79C838B838D819E8101979E838D8378
:100D70008D819E81009769F714C06F817885898580
:100D80009A850E944900DC01CB019E838D838D8171
:100D90009E819A83898389819A810197F1F79A8349
:100DA000898383E062E040E00E948E0A2F960FB6AE
:100DB000F894DEBF0FBECDBFCF91DF910895DF93D2
:100DC000CF93CDB7DEB72E970FB6F894DEBF0FBE28
:100DD000CDBF80E090E0ACE0B2E48B879C87AD872C
:100DE000BE876B857C858D859E8520E030E04AEF4F
:100DF00054E40E941F02DC01CB018F839887A987EE
:100E0000BA876F81788589859A8520E030E040E84F
:100E10005FE30E94790388232CF481E090E09E83B5
:100E20008D833FC06F81788589859A8520E03FEF6B
:100E30004FE757E40E94190318164CF56B857C8523
:100E40008D859E8520E030E040E251E40E941F0243
:100E5000DC01CB01BC01CD010E944900DC01CB01CA
:100E60009E838D830FC088EC90E09C838B838B8165
:100E70009C810197F1F79C838B838D819E810197E3
:100E80009E838D838D819E81009769F714C06F8149
:100E9000788589859A850E944900DC01CB019E8373
:100EA0008D838D819E819A83898389819A8101971F
:100EB000F1F79A83898388E30E9441068CE00E94BF
:100EC000410681E00E9441062E960FB6F894DEBFDF
:100ED0000FBECDBFCF91DF910895DF93CF9300D0A8
:100EE0000F92CDB7DEB79B838A8319820EC08981AA
:100EF000282F30E08A819B81FC01E20FF31F808163
:100F00000E94A30589818F5F89838981282F30E022
:100F10008A819B81FC01E20FF31F8081882339F7CE
:100F20000F900F900F90CF91DF910895DF93CF93A3
:100F300000D00F92CDB7DEB78A836B838B81882375
:100F400019F48A81898303C08A81805C89838981BD
:100F50008068898389810E9441060F900F900F90CD
:100F6000CF91DF910895DF93CF93CDB7DEB7279769
:100F70000FB6F894DEBF0FBECDBF9C838B836D830D
:100F80004E832F838D81882F90E0880F991F880FC3
:100F9000991F880F991F8A838A8180648A838A8136
:100FA0000E94410619820EC08981282F30E08B8172
:100FB0009C81FC01E20FF31F80810E94A3058981BF
:100FC0008F5F89838981883078F38E816F810E9459
:100FD00096078D810E94A30527960FB6F894DEBF71
:100FE0000FBECDBFCF91DF910895DF93CF93CDB7E3
:100FF000DEB72E970FB6F894DEBF0FBECDBF888741
:101000002DB73EB73E872D878DB79EB79A878987C4
:101010001D8288858C8309C08D818F5F8D838C8133
:101020009AE0692F0E9414108C838C818823A1F789
:101030008D81882F90E02DB73EB7281B390B0FB656
:10104000F8943EBF0FBE2DBF8DB79EB701969C870B
:101050008B878B859C8500969C878B872B853C8511
:101060003F832E83198223C088859AE0692F0E94CE
:101070001410892F8B8388859AE0692F0E941410A1
:1010800088878D81282F30E08981882F90E0809596
:101090009095280F391F8B81482F405D8E819F814D
:1010A000FC01E20FF31F408389818F5F898399815F
:1010B0008D819817C8F28D81282F30E08E819F8115
:1010C000FC01E20FF31F10821A820EC08A81282FC2
:1010D00030E08E819F81FC01E20FF31F80810E942E
:1010E000A3058A818F5F8A838A81282F30E08E81D1
:1010F0009F81FC01E20FF31F8081882339F78985E6
:101100009A850FB6F8949EBF0FBE8DBF2D853E8584
:101110000FB6F8943EBF0FBE2DBF2E960FB6F894B3
:10112000DEBF0FBECDBFCF91DF910895DF93CF9388
:10113000CDB7DEB728970FB6F894DEBF0FBECDBF90
:101140009E838D8380918100813011F41092800004
:10115000109281008D819E810E94260E89838D814F
:101160009E810E94260E89831DC080918000992750
:1011700087FD90959C01220F331FC901880F991F8D
:10118000880F991F820F931F8093800080918000A9
:10119000982F8981890F809380008D819E810E9484
:1011A000260E89838981843649F08981853631F01C
:1011B0008981863619F089818736B9F68091800059
:1011C0008C831092800089818A838D819E810E9408
:1011D000260E89831DC080918000992787FD9095F8
:1011E0009C01220F331FC901880F991F880F991F77
:1011F000820F931F8093800080918000982F8981B7
:10120000890F809380008D819E810E94260E8983A4
:101210008981883601F7809180008B838A818536A9
:1012200021F49B818C818917B4F08C81882354F43C
:101230008C810E94830D982F8B8189171CF48A81E1
:10124000843649F08C8188234CF48A81863619F0E3
:101250008A81873619F48DE20E94A3058A81282F9E
:1012600030E038872F838F81988585369105E1F0AE
:101270002F8138852636310534F48F819885843660
:10128000910561F032C02F81388526363105A1F0F5
:101290008F81988587369105B9F027C09C818B8115
:1012A000890F8093800021C09C818B81292F281B6E
:1012B000822F8093800019C08C819B81899F802D13
:1012C00011248093800011C08C81482F552747FD41
:1012D00050958B81282F332727FD3095CA01B901FE
:1012E0000E942010CB018093800080918000882391
:1012F00021F480E30E94A30506C0809180000E9433
:10130000830D0E94F50728960FB6F894DEBF0FBE36
:10131000CDBFCF91DF910895DF93CF93CDB7DEB7E7
:1013200027970FB6F894DEBF0FBECDBF89836A83BF
:101330004B838B81882309F075C08981282F30E089
:101340003F832E838E819F818230910561F12E81B2
:101350003F812330310534F48E819F8181309105A6
:1013600069F0D3C02E813F812330310589F18E8110
:101370009F818430910509F440C0C7C0AAE3B0E062
:10138000EAE3F0E08081482F8A81282F30E081E075
:1013900090E0022E02C0880F991F0A94E2F7809510
:1013A00084238C93B2C0A7E3B0E0E7E3F0E0808150
:1013B000482F8A81282F30E081E090E0022E02C081
:1013C000880F991F0A94E2F7809584238C939DC01F
:1013D000A4E3B0E0E4E3F0E08081482F8A81282F85
:1013E00030E081E090E0022E02C0880F991F0A943D
:1013F000E2F7809584238C9388C0A1E3B0E0E1E319
:10140000F0E08081482F8A81282F30E081E090E051
:10141000022E02C0880F991F0A94E2F78095842358
:101420008C9373C08B81813009F06FC08981282F24
:1014300030E03D832C838C819D818230910551F178
:101440002C813D812330310534F48C819D818130A4
:10145000910561F05AC02C813D812330310571F135
:101460008C819D8184309105E9F14FC0AAE3B0E001
:10147000EAE3F0E08081482F8A81282F30E081E084
:1014800090E0022E02C0880F991F0A94E2F7842B85
:101490008C933BC0A7E3B0E0E7E3F0E08081482F06
:1014A0008A81282F30E081E090E0022E02C0880F70
:1014B000991F0A94E2F7842B8C9327C0A4E3B0E031
:1014C000E4E3F0E08081482F8A81282F30E081E03A
:1014D00090E0022E02C0880F991F0A94E2F7842B35
:1014E0008C9313C0A1E3B0E0E1E3F0E08081482FEA
:1014F0008A81282F30E081E090E0022E02C0880F20
:10150000991F0A94E2F7842B8C9327960FB6F894D0
:10151000DEBF0FBECDBFCF91DF910895DF93CF9394
:10152000CDB7DEB727970FB6F894DEBF0FBECDBF9D
:1015300089836A834B838B81813009F070C08981F4
:10154000282F30E03F832E838E819F81823091054A
:1015500051F12E813F812330310534F48E819F81FA
:101560008130910561F0D3C02E813F812330310558
:1015700071F18E819F8184309105E9F1C8C0ABE3A0
:10158000B0E0EBE3F0E08081482F8A81282F30E043
:1015900081E090E0022E02C0880F991F0A94E2F7C2
:1015A000842B8C93B4C0A8E3B0E0E8E3F0E0808142
:1015B000482F8A81282F30E081E090E0022E02C07F
:1015C000880F991F0A94E2F7842B8C93A0C0A5E39F
:1015D000B0E0E5E3F0E08081482F8A81282F30E0F9
:1015E00081E090E0022E02C0880F991F0A94E2F772
:1015F000842B8C938CC0A2E3B0E0E2E3F0E0808126
:10160000482F8A81282F30E081E090E0022E02C02E
:10161000880F991F0A94E2F7842B8C9378C08B81F2
:10162000882309F074C08981282F30E03D832C8302
:101630008C819D818230910561F12C813D81233027
:10164000310534F48C819D818130910569F05FC052
:101650002C813D812330310589F18C819D8184303D
:10166000910509F440C053C0ABE3B0E0EBE3F0E018
:101670008081482F8A81282F30E081E090E0022E7F
:1016800002C0880F991F0A94E2F7809584238C93F7
:101690003EC0A8E3B0E0E8E3F0E08081482F8A8113
:1016A000282F30E081E090E0022E02C0880F991FC1
:1016B0000A94E2F7809584238C9329C0A5E3B0E0D7
:1016C000E5E3F0E08081482F8A81282F30E081E037
:1016D00090E0022E02C0880F991F0A94E2F78095CD
:1016E00084238C9314C0A2E3B0E0E2E3F0E08081B5
:1016F000482F8A81282F30E081E090E0022E02C03E
:10170000880F991F0A94E2F7809584238C9327967B
:101710000FB6F894DEBF0FBECDBFCF91DF91089515
:10172000DF93CF9300D000D0CDB7DEB789836A8333
:101730008981282F30E03C832B838B819C818230F0
:101740009105D9F02B813C812330310534F48B8114
:101750009C818130910561F01EC02B813C8123303A
:10176000310581F08B819C818430910581F013C01B
:10177000EAE3F0E08A8180830EC0E7E3F0E08A814B
:10178000808309C0E4E3F0E08A81808304C0E1E360
:10179000F0E08A8180830F900F900F900F90CF918F
:1017A000DF910895DF93CF9300D000D0CDB7DEB79F
:1017B00089836A838981282F30E03C832B838B8146
:1017C0009C8182309105D9F02B813C8123303105F9
:1017D00034F48B819C818130910561F01EC02B8196
:1017E0003C812330310581F08B819C8184309105CF
:1017F00081F013C0EBE3F0E08A8180830EC0E8E360
:10180000F0E08A81808309C0E5E3F0E08A8180838B
:1018100004C0E2E3F0E08A8180830F900F900F9084
:101820000F90CF91DF910895DF93CF9300D000D038
:101830000F92CDB7DEB78A836B838A81282F30E081
:101840003D832C834C815D814230510541F18C8177
:101850009D818330910534F42C813D812130310507
:1018600061F052C04C815D814330510551F18C8152
:101870009D8184309105B9F147C0E9E3F0E08081B2
:10188000282F30E08B81882F90E0A90102C0559568
:1018900047958A95E2F7CA018170898335C0E6E3EE
:1018A000F0E08081282F30E08B81882F90E0A90123
:1018B00002C0559547958A95E2F7CA0181708983E0
:1018C00023C0E3E3F0E08081282F30E08B81882F74
:1018D00090E0A90102C0559547958A95E2F7CA01A3
:1018E0008170898311C0E0E3F0E08081282F30E02F
:1018F0008B81882F90E0A90102C0559547958A9564
:10190000E2F7CA018170898389810F900F900F904F
:101910000F900F90CF91DF910895DF93CF93CDB7C4
:10192000DEB7A8970FB6F894DEBF0FBECDBFCE01CD
:1019300043969DA38CA3E0E7F0E0FFA3EEA3F0E1C4
:10194000F8A7EEA1FFA100808EA19FA101969FA301
:101950008EA3ECA1FDA100828CA19DA101969DA367
:101960008CA398A5915098A7E8A5EE2351F78FEF87
:101970008A8B198A188AB7C084E0688940E00E947F
:101980008E0A1F869EC08F85982F9C5F84E0692FEA
:101990000E94140C882309F091C08F85282F30E015
:1019A0008889482F50E0220F331F220F331FCE01AA
:1019B0000196820F931F840F951FFC017296808100
:1019C0008A8B81E0898B80E090E0A0E0B0E48B8797
:1019D0009C87AD87BE876B857C858D859E8520E045
:1019E00030E04AEF54E40E941F02DC01CB018F83F8
:1019F0009887A987BA876F81788589859A8520E03D
:101A000030E040E85FE30E94790388232CF481E012
:101A100090E09E838D833FC06F81788589859A850C
:101A200020E03FEF4FE757E40E94190318164CF5EA
:101A30006B857C858D859E8520E030E040E251E419
:101A40000E941F02DC01CB01BC01CD010E944900B4
:101A5000DC01CB019E838D830FC088EC90E09C83DA
:101A60008B838B819C810197F1F79C838B838D8184
:101A70009E8101979E838D838D819E81009769F75A
:101A800014C06F81788589859A850E944900DC01A0
:101A9000CB019E838D838D819E819A8389838981E9
:101AA0009A810197F1F79A8389838F85982F9C5F9C
:101AB00084E0692F0E94140C8823B9F38F858F5F0F
:101AC0008F878F85843008F45ECF84E0688941E099
:101AD0000E948E0A8989813019F4FA89FBA309C012
:101AE00088898F5F888B8889843008F445CF8A89FC
:101AF0008BA38BA1A8960FB6F894DEBF0FBECDBF07
:101B0000CF91DF910895DF93CF9300D00F92CDB79F
:101B1000DEB78A838A8188232CF48A81982F919555
:101B20009B8302C08A818B838B810F900F900F90D3
:101B3000CF91DF910895DF93CF9300D0CDB7DEB77B
:101B40009A838983E981FA818FEF80A3E981FA8101
:101B50008FEF81A30F900F90CF91DF910895DF93C6
:101B6000CF9300D0CDB7DEB79A83898380E00F9002
:101B70000F90CF91DF910895DF93CF9300D00F9214
:101B8000CDB7DEB79A838983E981FA8181A1882F55
:101B900090E0019620E230E0B9010E9420109C0103
:101BA000E981FA8180A1882F90E02817390719F47C
:101BB00081E08B8301C01B828B810F900F900F906F
:101BC000CF91DF910895DF93CF9300D000D0CDB7B0
:101BD000DEB789837B836A838A819B810E94BC0DE7
:101BE000813019F48FEF8C8329C08A819B810E94F8
:101BF000AF0D882339F0EA81FB8111A2EA81FB81D4
:101C000010A20EC0EA81FB8181A1882F90E001968D
:101C100020E230E0B9010E942010EA81FB8181A31B
:101C2000EA81FB8181A1282F30E08A819B81FC0120
:101C3000E20FF31F8981808381E08C838C810F9078
:101C40000F900F900F90CF91DF910895DF93CF9376
:101C500000D000D00F92CDB7DEB79C838B838B81F1
:101C60009C810E94AF0D813019F48FEF8D8330C0BD
:101C7000EB81FC8180A1282F30E08B819C81FC01CD
:101C8000E20FF31F8081882F90E09A838983EB8194
:101C9000FC8190A1EB81FC8181A1981749F4EB8133
:101CA000FC818FEF80A3EB81FC818FEF81A30EC0BD
:101CB000EB81FC8180A1882F90E0019620E230E04A
:101CC000B9010E942010EB81FC8180A389818D8362
:101CD0008D810F900F900F900F900F90CF91DF910B
:101CE0000895DF93CF9300D000D0CDB7DEB79A83AD
:101CF000898389819A810E94AF0D882311F01B820C
:101D000036C0E981FA8191A1E981FA8180A1981711
:101D100019F421E02B832BC0E981FA8191A1E9819B
:101D2000FA8180A1891768F4E981FA8191A1E9819A
:101D3000FA8180A1292F281B822F982F9F5F9B83D8
:101D400016C0E981FA8190A1E981FA8181A1891700
:101D500068F4E981FA8191A1E981FA8180A1292FB2
:101D6000281B822F982F9F5D9B8301C002C02B816F
:101D70002C838C810F900F900F900F90CF91DF915B
:101D80000895DF93CF9300D0CDB7DEB79A838983D0
:101D9000E981FA818FEF80A3E981FA818FEF81A336
:101DA0000F900F90CF91DF910895DF93CF93CDB730
:101DB000DEB7A7970FB6F894DEBF0FBECDBF84E0A5
:101DC0006FE00E94900B84E06FEF0E94D20B81E0E5
:101DD0006FEF0E94900B83E067E00E94900B0E94DF
:101DE000DF06CE0104969A83898389819A810E94B5
:101DF0009B0D0E948D0C8B838B81282F30E03FA39D
:101E00002EA38EA19FA18830910509F4A7C02EA111
:101E10003FA1293031055CF58EA19FA18430910549
:101E200009F474C02EA13FA1253031059CF48EA188
:101E30009FA18230910509F455C02EA13FA1233006
:101E400031050CF059C08EA19FA18130910509F494
:101E50003FC0CFCF2EA13FA12630310509F46AC083
:101E60008EA19FA1873091050CF06EC059C02EA1A4
:101E70003FA12C30310509F499C08EA19FA18D306E
:101E800091056CF42EA13FA12A30310509F47AC0E6
:101E90008EA19FA18B3091050CF07EC069C02EA150
:101EA0003FA12E30310509F495C08EA19FA18E303F
:101EB00091050CF485C02EA13FA12F30310509F406
:101EC0009EC08EA19FA18031910509F4A3C091CF3E
:101ED00029813A8181E0B9010E94E30D81E30E94EA
:101EE000A30587CF29813A8182E0B9010E94E30DE1
:101EF00082E30E94A3057DCF29813A8183E0B90165
:101F00000E94E30D83E30E94A30573CF29813A81E8
:101F100084E0B9010E94E30D84E30E94A30569CF28
:101F200029813A8185E0B9010E94E30D85E30E9491
:101F3000A3055FCF29813A8186E0B9010E94E30DB4
:101F400086E30E94A30555CF29813A8187E0B90134
:101F50000E94E30D87E30E94A3054BCF29813A81BC
:101F600088E0B9010E94E30D88E30E94A30541CFF8
:101F700029813A8189E0B9010E94E30D89E30E9439
:101F8000A30537CF29813A8184E6B9010E94E30D88
:101F90008BE20E94A3052DCF29813A8185E6B90104
:101FA0000E94E30D8DE20E94A30523CF29813A818F
:101FB00086E6B9010E94E30D8AE20E94A30519CFCB
:101FC00029813A8187E6B9010E94E30D8FE20E94E0
:101FD000A3050FCF29813A8188E6B9010E94E30D5C
:101FE0008DE30E94A30581E00E94410680E690E017
:101FF0000E946D0789819A810E949608FACE81E03D
:102000000E94410681E08093810089819A810E942B
:10201000C10EEFCE29813A8180E0B9010E94E30D23
:1020200080E30E94A305E5CE991B79E004C0991FC7
:10203000961708F0961B881F7A95C9F78095089522
:1020400097FB092E07260AD077FD04D00CD006D0C6
:1020500000201AF4709561957F4F0895F6F79095DA
:1020600081959F4F0895AA1BBB1B51E107C0AA1F72
:10207000BB1FA617B70710F0A61BB70B881F991F29
:102080005A95A9F780959095BC01CD0108952F929E
:102090003F924F925F926F927F928F929F92AF92F8
:1020A000BF92CF92DF92EF92FF920F931F93CF9345
:1020B000DF93CDB7DEB7CA1BDB0B0FB6F894DEBFDC
:1020C0000FBECDBF09942A88398848885F846E8402
:1020D0007D848C849B84AA84B984C884DF80EE804C
:1020E000FD800C811B81AA81B981CE0FD11D0FB655
:1020F000F894DEBF0FBECDBFED010895F894FFCF79
:10210000726573756C743D000000000000000000F3
:102110000102030405060708090A0B0C0D0E0F1037
:00000001FF
